:100000000C94A3000C94CB000C94CB000C94CB006C
:100010000C94CB000C94CB000C94CB000C94CB0034
:100020000C94CB000C94C4050C94CB000C94CB0026
:100030000C94CB000C94CB000C94CB000C94CB0014
:100040000C9405050C94CB000C948A050C944F0578
:100050000C94CB000C94CB000C94CB000C94CB00F4
:100060000C94CB000C94CB0008000000BE922449F5
:10007000123EABAAAA2ABECDCCCC4C3E00000080DA
:10008000BEABAAAAAA3E00000000BF000000803F4D
:100090000000000000084178D3BB4387D1133D190D
:1000A0000E3CC3BD4282AD2B3E68EC8276BED98F3A
:1000B000E1A93E4C80EFFFBE01C4FF7F3F0000007E
:1000C000000007634236B79BD8A71A39685618AEA6
:1000D000BAAB558C1D3CB7CC5763BD6DEDFD753E7D
:1000E000F6177231BF000000803F000000002400BE
:1000F00027002A0000000000250028002B00000037
:1001000000070002010000030406000000000000D8
:10011000000000000000230026002900040404045D
:1001200004040404020202020202030303030303A1
:10013000010204081020408001020408102001027E
:1001400004081020340611241FBECFEFD8E0DEBF14
:10015000CDBF11E0A0E0B1E0E0EEF8E102C0059013
:100160000D92A032B107D9F721E0A0E2B1E001C0C1
:100170001D92A53FB207E1F710E0C3EAD0E004C04A
:100180002197FE010E94680CC23AD107C9F70E946C
:100190008F060C947B080C940000CF92DF92EF92B4
:1001A000FF92CF93DF93B091E901882311F0AB2F39
:1001B00001C0A0E08091EA0190E0880F991F8E5E57
:1001C0009E4FC090EF01D090F001E090F101F090CF
:1001D000F20120E030E0FC01C591D491E881EB23ED
:1001E000A90160E070E0EA130CC02F5F3F4F4C158F
:1001F0005D056E057F0578F33FEF2FEF8FEF9FEFE3
:1002000003C0322F252FCB01632F722FDF91CF91A7
:10021000FF90EF90DF90CF90089508953FB7F89446
:100220008091300190913101A0913201B091330160
:1002300026B5A89B05C02F3F19F00196A11DB11D41
:100240003FBFBA2FA92F982F8827820F911DA11D7C
:10025000B11DBC01CD0142E0660F771F881F991FB9
:100260004A95D1F70895CF92DF92EF92FF92CF9304
:10027000DF936B017C010E940E01EB01C114D104DC
:10028000E104F10479F00E940E016C1B7D0B683EC5
:100290007340A0F381E0C81AD108E108F108C85101
:1002A000DC4FECCFDF91CF91FF90EF90DF90CF90BC
:1002B00008950F931F93CF93DF93FC01A685B78515
:1002C0008D01005C1F4FE8018881998101968F7331
:1002D0009927AD014E5B5F4FEA01288139812817CC
:1002E0003907D1F3E80128813981A20FB31F6C933C
:1002F000A685B785A05CBF4F11969C938E93A68967
:10030000B7892C9181E090E0078C02C0880F991F7B
:100310000A94E2F7822B8C9381E081A30488F5890B
:10032000E02D80818064808381E090E0DF91CF9137
:100330001F910F910895FC0181A1882329F0A489C0
:10034000B5898C9186FFFBCF11A20895FC01A4858D
:10035000B585FD01E05CFF4F2081318132968081BF
:1003600091812817390779F080819181A80FB91FF1
:100370008C91208131812F5F3F4F2F733327318341
:10038000208390E008958FEF9FEF0895DC011C9685
:10039000ED91FC911D97DF01A05CBF4F2D913C9129
:1003A000119712968D919C9111972817390739F062
:1003B0008D919C91E80FF91F808190E008958FEF57
:1003C0009FEF0895FC0124853585F901E05CFF4F1E
:1003D00080819181329620813181821B930B8F73B2
:1003E0009927089580EC91E00C94E201CF92DF927E
:1003F000EF92FF920F931F93CF93DF936C01EB016A
:100400007B01E40EF51E00E010E0CE15DF0561F083
:100410006991D601ED91FC910190F081E02DC6012A
:100420000995080F191FF1CFC801DF91CF911F91D6
:100430000F91FF90EF90DF90CF90089590E0FC0136
:10044000E250FF4F2491FC01E05DFE4F3491FC012E
:10045000E45EFE4FE491EE2309F43CC0222339F11F
:10046000233091F038F42130A9F0223001F584B521
:100470008F7D12C0263091F02730A1F02430B9F4DE
:10048000809180008F7D03C0809180008F77809362
:1004900080000DC084B58F7784BD09C08091B00005
:1004A0008F7703C08091B0008F7D8093B000F0E023
:1004B000EE0FFF1FEC50FF4FA591B4919FB7F8943A
:1004C000611104C08C913095382302C0EC913E2B11
:1004D0003C939FBF0895CF93DF9390E0FC01E05DD4
:1004E000FE4F2491FC01E45EFE4F8491882361F16C
:1004F00090E0880F991FFC01E651FF4FC591D49100
:10050000FC01EC50FF4FA591B491611109C09FB758
:10051000F8948881209582238883EC912E230BC048
:10052000623061F49FB7F8948881322F309583232D
:100530008883EC912E2B2C939FBF06C08FB7F89425
:10054000E8812E2B28838FBFDF91CF910895CF9222
:10055000DF92EF92FF920F931F93CF93DF93CDB76C
:10056000DEB7C054D1400FB6F894DEBF0FBECDBF8A
:100570002FB7F8948091340190913501A091360104
:10058000B09137012FBF4091EB015091EC01609188
:10059000ED017091EE018C019D01041B150B260BE2
:1005A000370BB901A801403D57406105710518F4AA
:1005B0008091F301C9C08093EB019093EC01A0936B
:1005C000ED01B093EE011092E6011092E501109258
:1005D000E4011092E3011092E20162E08091E701F0
:1005E0000E946B0261E070E080E090E00E943301C5
:1005F00061E08091E7010E946B0260E08091E70179
:100600000E941E028091E8018551823028F48AE21E
:1006100091E10197F1F706C064E170E080E090E0BD
:100620000E94330162E08091E7010E946B02809199
:10063000F40190E0019739F0880F991F880F991FF6
:1006400002970197F1F7F89480E00E94CD006F3F88
:100650007F4F8F4F9F4F21F41092F301789441C048
:1006600081E00E94CD006F3F7F4F8F4F9F4FA1F3DE
:100670008E010F5F1F4F6E018FEBC81A8EEFD80AE5
:10068000780180E00E94CD00F7016083718382834E
:10069000938381E00E94CD00F70164837583868394
:1006A0009783F8E0EF0EF11CEC14FD0451F77894F9
:1006B00020E030E0F801C080D180E280F380448106
:1006C000558166817781FFEFCF16DF06EF06FF06C3
:1006D00031F04F3F8FEF58076807780721F41092E9
:1006E000F30180E031C0F90183E0F595E7958A9543
:1006F000E1F7EE51FE4F8081880FC416D506E6065D
:10070000F70608F4816080832F5F3F4F085F1F4F1B
:100710002832310579F62091E60130E04091E2017E
:100720008091E30190E0840F911D4091E401840FDA
:10073000911D4091E501840F911D992728173907D4
:1007400071F681E08093F301C05CDE4F0FB6F89440
:10075000DEBF0FBECDBFDF91CF911F910F91FF90F4
:10076000EF90DF90CF900895009769F0FC01019021
:100770000020E9F73197AF01481B590BBC0180EC11
:1007800091E00C94F60180E090E008958F929F92A2
:10079000AF92BF92EF92FF920F931F93CF93DF938D
:1007A000CDB7DEB7A1970FB6F894DEBF0FBECDBFB1
:1007B000162F042F19A2423008F40AE07E0121E22C
:1007C000E20EF11C802E912CA12CB12C612FA501E1
:1007D00094010E94460C029F1019112481E0E81A2E
:1007E000F1081A3014F4105D01C0195CF701108390
:1007F000122F732FCA01232B242B252B39F7C70166
:100800000E94B403A1960FB6F894DEBF0FBECDBF11
:10081000DF91CF911F910F91FF90EF90BF90AF901C
:100820009F908F9008954F925F926F927F928F92D8
:100830009F92AF92BF92CF92DF92EF92FF92CF93AF
:10084000DF936B017C01B42E9B01AC010E945C0B19
:10085000882319F080E191E027C026013701E89450
:1008600077F82FEF3FEF4FE75FE7C301B2010E9438
:100870005C0B81110DC02FEF3FEF4FE75FE7C30126
:10088000B2010E94EB0818161CF484E191E00CC040
:100890002FEF3FEF4FE75FE4C701B6010E944A0A1E
:1008A000181694F488E191E0DF91CF91FF90EF90DA
:1008B000DF90CF90BF90AF909F908F907F906F9080
:1008C0005F904F900C94B4032FEF3FEF4FE75FEC36
:1008D000C701B6010E94EB0887FDE4CF20E030E0BD
:1008E000A901C701B6010E94EB0887FF0BC06DE2AA
:1008F00080EC91E00E945901EC01F7FAF094F7F8CE
:10090000F09402C0C0E0D0E0A12C60E070E080E094
:100910009FE3BA1441F020E030E040E251E40E944D
:10092000F008A394F6CFA70196010E947F086B01FF
:100930007C010E9469092B013C014AE00E94C60328
:10094000C80FD91FBB2009F450C0C301B2010E94D7
:1009500098099B01AC01C701B6010E947E082B01DA
:100960003C018CE191E00E94B403C80FD91FFB2C1D
:1009700020E030E040E251E4C301B2010E949F0A4E
:100980002B013C010E9462094B01770FAA08BB08AA
:10099000B7FE15C06DE280EC91E00E9459016C0138
:1009A00088279927DC0188199909AA09BB094AE017
:1009B000BC01CD010E94C6038C0D9D1D05C04AE0FF
:1009C000C501B4010E94C603C80FD91FC501B401F7
:1009D0000E949A099B01AC01C301B2010E947E08EA
:1009E0002B013C01FA94F110C3CFCE01DF91CF91DE
:1009F000FF90EF90DF90CF90BF90AF909F908F903F
:100A00007F906F905F904F9008951F920F920FB656
:100A10000F9211242F933F938F939F93AF93BF9384
:100A20008091340190913501A0913601B091370148
:100A300030912F0123E0230F2D3720F40196A11DC3
:100A4000B11D05C026E8230F0296A11DB11D2093FC
:100A50002F018093340190933501A0933601B09318
:100A600037018091300190913101A0913201B09114
:100A700033010196A11DB11D809330019093310186
:100A8000A0933201B0933301BF91AF919F918F91A9
:100A90003F912F910F900FBE0F901F9018951F92AE
:100AA0000F920FB60F9211242F933F938F939F9322
:100AB000EF93FF93209178013091790180917A0131
:100AC00090917B012817390731F48091C1008F7D07
:100AD0008093C10014C0E0917A01F0917B01E85C41
:100AE000FE4F208180917A0190917B0101968F7356
:100AF000992790937B0180937A012093C600FF9100
:100B0000EF919F918F913F912F910F900FBE0F907A
:100B10001F9018951F920F920FB60F9211242F93CA
:100B20004F935F938F939F93EF93FF938091C000B8
:100B300082FD1CC02091C6008091BC019091BD0136
:100B40004091BE015091BF0101968F7399274817BC
:100B5000590771F0E091BC01F091BD01E458FE4FDE
:100B600020839093BD018093BC0102C08091C60098
:100B7000FF91EF919F918F915F914F912F910F90E6
:100B80000FBE0F901F9018951F920F920FB60F92E5
:100B900011242F933F934F935F936F937F938F9382
:100BA0009F93AF93BF93EF93FF9380912001909118
:100BB000210101969093210180932001CC9709F0A7
:100BC00042C08EE191E00E94B403609123017091D4
:100BD0002401809125019091260142E00E94130496
:100BE0008EE191E00E94B40360912B0170912C0181
:100BF00080912D0190912E0142E00E9413048EE11C
:100C000091E00E94B40360912701709128018091C6
:100C1000290190912A0142E00E9413046DE080ECCA
:100C200091E00E9459016AE080EC91E00E94590134
:100C30009091220181E0911180E080932201109235
:100C4000210110922001FF91EF91BF91AF919F91EF
:100C50008F917F916F915F914F913F912F910F9065
:100C60000FBE0F901F901895E0ECF1E013821282F6
:100C700088EE93E0A0E0B0E084839583A683B783F9
:100C800084E091E0918380838CE791E0958784876D
:100C900088E391E09787868785EC90E0918B808B45
:100CA00084EC90E0938B828B80EC90E0958B848B2E
:100CB00081EC90E0978B868B82EC90E0918F808F17
:100CC00086EC90E0938F828F84E0848F83E0858F21
:100CD00087E0868F85E0878F81E080A3A2EEB1E078
:100CE00081E215968C9315978BE016968C93169748
:100CF000E1E5F1E0E4911796EC931797EDE3F1E06D
:100D0000E4911896EC93189740E85EE360E070E099
:100D10001D964D935D936D937C93509708957894B1
:100D200084B5826084BD84B5816084BD85B58260F0
:100D300085BD85B5816085BD80916E0081608093A1
:100D40006E0010928100809181008260809381000A
:100D5000809181008160809381008091800081601A
:100D6000809380008091B10084608093B100809175
:100D7000B00081608093B00080917A00846080939D
:100D80007A0080917A00826080937A0080917A0064
:100D9000816080937A0080917A00806880937A00E5
:100DA0001092C100E091D401F091D50181E090E072
:100DB0009C010090E00102C0220F331F0A94E2F769
:100DC0002083E091D001F091D1011082E091D20115
:100DD000F091D30120E120831092E101E091D6014E
:100DE000F091D70140819C010090DC0102C0220FEC
:100DF000331F0A94E2F7242B2083E091D601F0916F
:100E0000D70140819C010090DD0102C0220F331FF9
:100E10000A94E2F7242B2083E091D601F091D701C8
:100E200040819C010090DE0102C0220F331F0A9412
:100E3000E2F7242B2083E091D601F091D7012081A5
:100E40000090DF0102C0880F991F0A94E2F7809595
:100E50008223808362E08091E7010E946B022FB7BA
:100E6000F8948091340190913501A0913601B091B0
:100E700037012FBF805D9740A109B1098093EB0135
:100E80009093EC01A093ED01B093EE0187E3809382
:100E9000F40161E08DE00E946B028091700081603E
:100EA000809370008091B10087608093B100C0E4AE
:100EB0000E94A7028823C1F18091E8018B30A0F144
:100EC0008D30A8F08551823078F56091E201709103
:100ED000E30176276727762780E090E00E94980953
:100EE0002DEC3CEC4CEC5DE30E949F0A21C060912C
:100EF000E30170E080E090E00E949A092DEC3CEC68
:100F00004CEC5DE30E949F0A6B017C016091E20161
:100F100070E080E090E00E949A099B01AC01C7015B
:100F2000B6010E947F0804C060E070E080EC9FE79B
:100F300060932B0170932C0180932D0190932E01CF
:100F40000E94A702882309F46DC08091E8018C30CB
:100F500009F446C018F48B30D1F064C0855182305A
:100F600008F060C0D091E4016D2F6F7770E0762FAC
:100F700066278091E501682B80E090E00E94980947
:100F80002DEC3CEC4CEC5DE30E949F0A47C0609165
:100F9000E40170E080E090E00E9498096B017C0120
:100FA000D091E501D7FF0AC09B01AC0160E070E081
:100FB00080E89FEB0E947E086B017C016D2F6F70B3
:100FC00070E080E090E00E949A092DEC3CEC4CEC43
:100FD0005DE30E949F0AA70196010E947F0826C038
:100FE000D091E4016091E5016F7070E080E090E0E5
:100FF0000E949A092DEC3CEC4CEC5DE30E949F0AA8
:101000006B017C016D2F70E080E090E00E949809F8
:101010009B01AC01C701B6010E947F08D7FF06C043
:10102000905804C060E070E080EC9FE76093270177
:10103000709328018093290190932A01C0937C002A
:1010400080917A00806480937A0080917A0086FD96
:10105000FCCF609178008091790070E0782B072EAA
:10106000000C880B990B0E949A099B01AC0160E06F
:1010700070EC8FE794E40E94F00820E030E040E854
:101080005FE30E947E0820E030E44CE156E40E94D9
:101090009F0A0E94570A20E030E040E450E40E949A
:1010A0000C0B29E537E44CEB53E30E949F0A2BEE2F
:1010B0003FEF43E95AE30E947F089B01AC0160E0E7
:1010C00070E080E89FE30E94F00823E333E948E8FA
:1010D00053E40E947E08609323017093240180935F
:1010E000250190932601609122018DE00E941E024D
:1010F0000E94F201DDCEF8940C946E0C5058BB2780
:10110000AA270E9496080C94100A0E94020A38F03E
:101110000E94090A20F039F49F3F19F426F40C9438
:10112000FF090EF4E095E7FB0C94F909E92F0E9402
:10113000210A58F3BA17620773078407950720F04E
:1011400079F4A6F50C94430A0EF4E0950B2EBA2F11
:10115000A02D0B01B90190010C01CA01A0011124BD
:10116000FF27591B99F0593F50F4503E68F11A1669
:10117000F040A22F232F342F4427585FF3CF4695FA
:1011800037952795A795F0405395C9F77EF41F161C
:10119000BA0B620B730B840BBAF09150A1F0FF0FE6
:1011A000BB1F661F771F881FC2F70EC0BA0F621FD2
:1011B000731F841F48F4879577956795B795F795C2
:1011C0009E3F08F0B0CF9395880F08F09927EE0F57
:1011D0009795879508950E94D50908F481E00895B0
:1011E0000E9404090C94100A0E94090A58F00E94F7
:1011F000020A40F029F45F3F29F00C94F9095111DB
:101200000C94440A0C94FF090E94210A68F3992364
:10121000B1F3552391F3951B550BBB27AA276217F2
:101220007307840738F09F5F5F4F220F331F441FFF
:10123000AA1FA9F335D00E2E3AF0E0E832D0915033
:101240005040E695001CCAF72BD0FE2F29D0660F20
:10125000771F881FBB1F261737074807AB07B0E863
:1012600009F0BB0B802DBF01FF2793585F4F3AF069
:101270009E3F510578F00C94F9090C94440A5F3FA5
:10128000E4F3983ED4F3869577956795B795F795EF
:101290009F5FC9F7880F911D9695879597F90895D7
:1012A000E1E0660F771F881FBB1F62177307840773
:1012B000BA0720F0621B730B840BBA0BEE1F88F782
:1012C000E09508950E9469096894B1110C94440A4C
:1012D00008950E94290A88F09F5798F0B92F9927FE
:1012E000B751B0F0E1F0660F771F881F991F1AF011
:1012F000BA95C9F714C0B13091F00E94430AB1E029
:1013000008950C94430A672F782F8827B85F39F027
:10131000B93FCCF3869577956795B395D9F73EF4A9
:1013200090958095709561957F4F8F4F9F4F089551
:10133000E89409C097FB3EF490958095709561956F
:101340007F4F8F4F9F4F9923A9F0F92F96E9BB2725
:101350009395F695879577956795B795F111F8CFA1
:10136000FAF4BB0F11F460FF1BC06F5F7F4F8F4F0C
:101370009F4F16C0882311F096E911C0772321F002
:101380009EE8872F762F05C0662371F096E8862F9A
:1013900070E060E02AF09A95660F771F881FDAF7F1
:1013A000880F9695879597F90895990F0008550F1E
:1013B000AA0BE0E8FEEF16161706E807F907C0F0DB
:1013C00012161306E407F50798F0621B730B840BE3
:1013D000950B39F40A2661F0232B242B252B21F4BD
:1013E00008950A2609F4A140A6958FEF811D811D5D
:1013F000089597F99F6780E870E060E008959FEF97
:1014000080EC089500240A9416161706180609069B
:10141000089500240A94121613061406050608956A
:10142000092E0394000C11F4882352F0BB0F40F4F2
:10143000BF2B11F460FF04C06F5F7F4F8F4F9F4F32
:10144000089557FD9058440F551F59F05F3F71F0B4
:101450004795880F97FB991F61F09F3F79F087951B
:101460000895121613061406551FF2CF4695F1DFA4
:1014700008C0161617061806991FF1CF8695710534
:10148000610508940895E894BB2766277727CB0168
:1014900097F908950E94D50908F48FEF089516F082
:1014A0000C949B0B0C94FF0968940C94F9090E940E
:1014B000290AA8F39923C1F3AEF3DF93CF931F93C7
:1014C0000F93FF92C92FDD2788232AF02197660FFB
:1014D000771F881FDAF720E030E040E85FEB9FE3FA
:1014E000883920F0803E38F021968F770E947F085F
:1014F000E8E6F0E004C00E947F08E5E9F0E00E9421
:10150000A90B8B01BE01EC01FB2E6F57710975957C
:10151000771F880B990B0E949A0928E132E741E373
:101520005FE30E94B20AAF2D9801AE01FF900F91C8
:101530001F91CF91DF910E9496080C94100A0E948F
:10154000B20A0C94100A0E94020A38F00E94090A9A
:1015500020F0952311F00C94F9090C94FF09112443
:101560000C94440A0E94210A70F3959FC1F3950FD1
:1015700050E0551F629FF001729FBB27F00DB11D17
:10158000639FAA27F00DB11DAA1F649F6627B00DA7
:10159000A11D661F829F2227B00DA11D621F739F90
:1015A000B00DA11D621F839FA00D611D221F749F9E
:1015B0003327A00D611D231F849F600D211D822FE5
:1015C000762F6A2F11249F5750409AF0F1F088230C
:1015D0004AF0EE0FFF1FBB1F661F771F881F915039
:1015E0005040A9F79E3F510580F00C94F9090C94E6
:1015F000440A5F3FE4F3983ED4F386957795679568
:10160000B795F795E7959F5FC1F7FE2B880F911D62
:101610009695879597F90895FA01EE0FFF1F30967A
:1016200021053105A1F16115710561F48038BFE331
:101630009B0749F168949038810561F08038BFEFCD
:101640009B0741F099234AF5FF3FE105310521054C
:1016500019F1E8940894E795D901AA2329F4AB2F4E
:10166000BE2FF85FD0F310C0FF5F70F4A695E0F7CF
:10167000F73950F019F0FF3A38F49F779F930DD067
:101680000F9007FC9058089546F00C94FF0960E015
:1016900070E080E89FE308954FE79F775F934F9353
:1016A0003F932F930E94570A2F913F914F915F9143
:1016B0000E949F0A0C94690B0E94D509880B990B14
:1016C000089529F416F00C94F9090C94430A0C942B
:1016D000FF090E94290AA8F39638A0F707F80F928D
:1016E000E8942BE33AEA48EB5FE70E94B50A0F92D1
:1016F0000F920F924DB75EB70F920E94120CE2EC60
:10170000F0E00E94A90B4F915F91EF91FF91E59559
:10171000EE1FFF1F49F0FE57E0684427EE0F441FFD
:10172000FA95E1F74195550B0E94DC0B0F9007FEEF
:101730000C94D00B08959F3F31F0915020F4879581
:1017400077956795B795880F911D9695879597F929
:101750000895DF93CF931F930F93FF92EF92DF9241
:101760007B018C01689406C0DA2EEF010E94B20A58
:10177000FE01E894A5912591359145915591A6F3E7
:10178000EF010E949608FE019701A801DA9469F71B
:10179000DF90EF90FF900F911F91CF91DF9108950F
:1017A0009B01AC0160E070E080E89FE30C94F008DE
:1017B0000C94F9090C949B0B0E94290AD8F39923E5
:1017C000C9F3940F511DA3F39150504094F059F078
:1017D000882332F0660F771F881F91505040C1F761
:1017E0009E3F51052CF7880F911D9695879597F987
:1017F00008955F3FACF0983E9CF0BB2786957795A7
:101800006795B79508F4B1609395C1F7BB0F58F78A
:1018100011F460FFE8CF6F5F7F4F8F4F9F4FE3CF93
:101820000C94440AFA01DC01AA0FBB1F9B01AC0116
:10183000BF5728F4222733274427507820C0B751B8
:1018400090F4AB2F0024469537952795011CA3955E
:10185000D2F3002071F0220F331F441FB395DAF347
:101860000ED00C947E0861307105A0E88A07B94655
:1018700030F49B01AC016627772788279078309653
:1018800021F020833183428353830895A1E21A2EED
:10189000AA1BBB1BFD010DC0AA1FBB1FEE1FFF1F14
:1018A000A217B307E407F50720F0A21BB30BE40B64
:1018B000F50B661F771F881F991F1A9469F76095AB
:1018C0007095809590959B01AC01BD01CF01089565
:1018D000EE0FFF1F0590F491E02D0994F894FFCFCF
:1018E000000000005901F601E201A601C6019B01BA
:1018F0006E616E00696E66006F7666002E002000D5
:00000001FF
